{
  "_format": "hh-sol-artifact-1",
  "contractName": "MadnessBros",
  "sourceName": "contracts/MadnessBros.sol",
  "abi": [
    {
      "inputs": [
        {
          "internalType": "string",
          "name": "name",
          "type": "string"
        },
        {
          "internalType": "string",
          "name": "symbol",
          "type": "string"
        },
        {
          "internalType": "uint256",
          "name": "maxNFTSupply",
          "type": "uint256"
        }
      ],
      "stateMutability": "nonpayable",
      "type": "constructor"
    },
    {
      "anonymous": false,
      "inputs": [
        {
          "indexed": true,
          "internalType": "address",
          "name": "owner",
          "type": "address"
        },
        {
          "indexed": true,
          "internalType": "address",
          "name": "approved",
          "type": "address"
        },
        {
          "indexed": true,
          "internalType": "uint256",
          "name": "tokenId",
          "type": "uint256"
        }
      ],
      "name": "Approval",
      "type": "event"
    },
    {
      "anonymous": false,
      "inputs": [
        {
          "indexed": true,
          "internalType": "address",
          "name": "owner",
          "type": "address"
        },
        {
          "indexed": true,
          "internalType": "address",
          "name": "operator",
          "type": "address"
        },
        {
          "indexed": false,
          "internalType": "bool",
          "name": "approved",
          "type": "bool"
        }
      ],
      "name": "ApprovalForAll",
      "type": "event"
    },
    {
      "anonymous": false,
      "inputs": [
        {
          "indexed": true,
          "internalType": "address",
          "name": "previousOwner",
          "type": "address"
        },
        {
          "indexed": true,
          "internalType": "address",
          "name": "newOwner",
          "type": "address"
        }
      ],
      "name": "OwnershipTransferred",
      "type": "event"
    },
    {
      "anonymous": false,
      "inputs": [
        {
          "indexed": true,
          "internalType": "address",
          "name": "from",
          "type": "address"
        },
        {
          "indexed": true,
          "internalType": "address",
          "name": "to",
          "type": "address"
        },
        {
          "indexed": true,
          "internalType": "uint256",
          "name": "tokenId",
          "type": "uint256"
        }
      ],
      "name": "Transfer",
      "type": "event"
    },
    {
      "inputs": [],
      "name": "MAX_NFT",
      "outputs": [
        {
          "internalType": "uint256",
          "name": "",
          "type": "uint256"
        }
      ],
      "stateMutability": "view",
      "type": "function"
    },
    {
      "inputs": [],
      "name": "NFTPrice",
      "outputs": [
        {
          "internalType": "uint256",
          "name": "",
          "type": "uint256"
        }
      ],
      "stateMutability": "view",
      "type": "function"
    },
    {
      "inputs": [
        {
          "internalType": "address",
          "name": "to",
          "type": "address"
        },
        {
          "internalType": "uint256",
          "name": "tokenId",
          "type": "uint256"
        }
      ],
      "name": "approve",
      "outputs": [],
      "stateMutability": "nonpayable",
      "type": "function"
    },
    {
      "inputs": [
        {
          "internalType": "address",
          "name": "owner",
          "type": "address"
        }
      ],
      "name": "balanceOf",
      "outputs": [
        {
          "internalType": "uint256",
          "name": "",
          "type": "uint256"
        }
      ],
      "stateMutability": "view",
      "type": "function"
    },
    {
      "inputs": [],
      "name": "baseURI",
      "outputs": [
        {
          "internalType": "string",
          "name": "",
          "type": "string"
        }
      ],
      "stateMutability": "view",
      "type": "function"
    },
    {
      "inputs": [],
      "name": "flipSaleState",
      "outputs": [],
      "stateMutability": "nonpayable",
      "type": "function"
    },
    {
      "inputs": [
        {
          "internalType": "uint256",
          "name": "tokenId",
          "type": "uint256"
        }
      ],
      "name": "getApproved",
      "outputs": [
        {
          "internalType": "address",
          "name": "",
          "type": "address"
        }
      ],
      "stateMutability": "view",
      "type": "function"
    },
    {
      "inputs": [
        {
          "internalType": "address",
          "name": "owner",
          "type": "address"
        },
        {
          "internalType": "address",
          "name": "operator",
          "type": "address"
        }
      ],
      "name": "isApprovedForAll",
      "outputs": [
        {
          "internalType": "bool",
          "name": "",
          "type": "bool"
        }
      ],
      "stateMutability": "view",
      "type": "function"
    },
    {
      "inputs": [],
      "name": "maxNFTPurchase",
      "outputs": [
        {
          "internalType": "uint256",
          "name": "",
          "type": "uint256"
        }
      ],
      "stateMutability": "view",
      "type": "function"
    },
    {
      "inputs": [
        {
          "internalType": "uint256",
          "name": "numberOfTokens",
          "type": "uint256"
        }
      ],
      "name": "mintNFT",
      "outputs": [],
      "stateMutability": "payable",
      "type": "function"
    },
    {
      "inputs": [],
      "name": "name",
      "outputs": [
        {
          "internalType": "string",
          "name": "",
          "type": "string"
        }
      ],
      "stateMutability": "view",
      "type": "function"
    },
    {
      "inputs": [
        {
          "internalType": "address",
          "name": "",
          "type": "address"
        }
      ],
      "name": "ownedNfts",
      "outputs": [
        {
          "internalType": "uint256",
          "name": "",
          "type": "uint256"
        }
      ],
      "stateMutability": "view",
      "type": "function"
    },
    {
      "inputs": [],
      "name": "owner",
      "outputs": [
        {
          "internalType": "address",
          "name": "",
          "type": "address"
        }
      ],
      "stateMutability": "view",
      "type": "function"
    },
    {
      "inputs": [
        {
          "internalType": "uint256",
          "name": "tokenId",
          "type": "uint256"
        }
      ],
      "name": "ownerOf",
      "outputs": [
        {
          "internalType": "address",
          "name": "",
          "type": "address"
        }
      ],
      "stateMutability": "view",
      "type": "function"
    },
    {
      "inputs": [],
      "name": "renounceOwnership",
      "outputs": [],
      "stateMutability": "nonpayable",
      "type": "function"
    },
    {
      "inputs": [],
      "name": "reserveNFT",
      "outputs": [],
      "stateMutability": "nonpayable",
      "type": "function"
    },
    {
      "inputs": [
        {
          "internalType": "address",
          "name": "from",
          "type": "address"
        },
        {
          "internalType": "address",
          "name": "to",
          "type": "address"
        },
        {
          "internalType": "uint256",
          "name": "tokenId",
          "type": "uint256"
        }
      ],
      "name": "safeTransferFrom",
      "outputs": [],
      "stateMutability": "nonpayable",
      "type": "function"
    },
    {
      "inputs": [
        {
          "internalType": "address",
          "name": "from",
          "type": "address"
        },
        {
          "internalType": "address",
          "name": "to",
          "type": "address"
        },
        {
          "internalType": "uint256",
          "name": "tokenId",
          "type": "uint256"
        },
        {
          "internalType": "bytes",
          "name": "_data",
          "type": "bytes"
        }
      ],
      "name": "safeTransferFrom",
      "outputs": [],
      "stateMutability": "nonpayable",
      "type": "function"
    },
    {
      "inputs": [],
      "name": "saleIsActive",
      "outputs": [
        {
          "internalType": "bool",
          "name": "",
          "type": "bool"
        }
      ],
      "stateMutability": "view",
      "type": "function"
    },
    {
      "inputs": [
        {
          "internalType": "address",
          "name": "operator",
          "type": "address"
        },
        {
          "internalType": "bool",
          "name": "approved",
          "type": "bool"
        }
      ],
      "name": "setApprovalForAll",
      "outputs": [],
      "stateMutability": "nonpayable",
      "type": "function"
    },
    {
      "inputs": [
        {
          "internalType": "string",
          "name": "_baseUri",
          "type": "string"
        }
      ],
      "name": "setBaseURI",
      "outputs": [],
      "stateMutability": "nonpayable",
      "type": "function"
    },
    {
      "inputs": [
        {
          "internalType": "bytes4",
          "name": "interfaceId",
          "type": "bytes4"
        }
      ],
      "name": "supportsInterface",
      "outputs": [
        {
          "internalType": "bool",
          "name": "",
          "type": "bool"
        }
      ],
      "stateMutability": "view",
      "type": "function"
    },
    {
      "inputs": [],
      "name": "symbol",
      "outputs": [
        {
          "internalType": "string",
          "name": "",
          "type": "string"
        }
      ],
      "stateMutability": "view",
      "type": "function"
    },
    {
      "inputs": [
        {
          "internalType": "uint256",
          "name": "index",
          "type": "uint256"
        }
      ],
      "name": "tokenByIndex",
      "outputs": [
        {
          "internalType": "uint256",
          "name": "",
          "type": "uint256"
        }
      ],
      "stateMutability": "view",
      "type": "function"
    },
    {
      "inputs": [
        {
          "internalType": "address",
          "name": "owner",
          "type": "address"
        },
        {
          "internalType": "uint256",
          "name": "index",
          "type": "uint256"
        }
      ],
      "name": "tokenOfOwnerByIndex",
      "outputs": [
        {
          "internalType": "uint256",
          "name": "",
          "type": "uint256"
        }
      ],
      "stateMutability": "view",
      "type": "function"
    },
    {
      "inputs": [
        {
          "internalType": "uint256",
          "name": "tokenId",
          "type": "uint256"
        }
      ],
      "name": "tokenURI",
      "outputs": [
        {
          "internalType": "string",
          "name": "",
          "type": "string"
        }
      ],
      "stateMutability": "view",
      "type": "function"
    },
    {
      "inputs": [],
      "name": "totalSupply",
      "outputs": [
        {
          "internalType": "uint256",
          "name": "",
          "type": "uint256"
        }
      ],
      "stateMutability": "view",
      "type": "function"
    },
    {
      "inputs": [
        {
          "internalType": "address",
          "name": "from",
          "type": "address"
        },
        {
          "internalType": "address",
          "name": "to",
          "type": "address"
        },
        {
          "internalType": "uint256",
          "name": "tokenId",
          "type": "uint256"
        }
      ],
      "name": "transferFrom",
      "outputs": [],
      "stateMutability": "nonpayable",
      "type": "function"
    },
    {
      "inputs": [
        {
          "internalType": "address",
          "name": "newOwner",
          "type": "address"
        }
      ],
      "name": "transferOwnership",
      "outputs": [],
      "stateMutability": "nonpayable",
      "type": "function"
    },
    {
      "inputs": [],
      "name": "withdraw",
      "outputs": [],
      "stateMutability": "nonpayable",
      "type": "function"
    }
  ],
  "bytecode": "0x60806040526000600e60006101000a81548160ff0219169083151502179055503480156200002c57600080fd5b5060405162004574380380620045748339818101604052810190620000529190620002bf565b828281600090805190602001906200006c92919062000186565b5080600190805190602001906200008592919062000186565b505050620000a86200009c620000b860201b60201c565b620000c060201b60201c565b80600c81905550505050620004db565b600033905090565b6000600a60009054906101000a900473ffffffffffffffffffffffffffffffffffffffff16905081600a60006101000a81548173ffffffffffffffffffffffffffffffffffffffff021916908373ffffffffffffffffffffffffffffffffffffffff1602179055508173ffffffffffffffffffffffffffffffffffffffff168173ffffffffffffffffffffffffffffffffffffffff167f8be0079c531659141344cd1fd0a4f28419497f9722a3daafe3b4186f6b6457e060405160405180910390a35050565b8280546200019490620003e6565b90600052602060002090601f016020900481019282620001b8576000855562000204565b82601f10620001d357805160ff191683800117855562000204565b8280016001018555821562000204579182015b8281111562000203578251825591602001919060010190620001e6565b5b50905062000213919062000217565b5090565b5b808211156200023257600081600090555060010162000218565b5090565b60006200024d620002478462000370565b62000347565b9050828152602081018484840111156200026657600080fd5b62000273848285620003b0565b509392505050565b600082601f8301126200028d57600080fd5b81516200029f84826020860162000236565b91505092915050565b600081519050620002b981620004c1565b92915050565b600080600060608486031215620002d557600080fd5b600084015167ffffffffffffffff811115620002f057600080fd5b620002fe868287016200027b565b935050602084015167ffffffffffffffff8111156200031c57600080fd5b6200032a868287016200027b565b92505060406200033d86828701620002a8565b9150509250925092565b60006200035362000366565b90506200036182826200041c565b919050565b6000604051905090565b600067ffffffffffffffff8211156200038e576200038d62000481565b5b6200039982620004b0565b9050602081019050919050565b6000819050919050565b60005b83811015620003d0578082015181840152602081019050620003b3565b83811115620003e0576000848401525b50505050565b60006002820490506001821680620003ff57607f821691505b6020821081141562000416576200041562000452565b5b50919050565b6200042782620004b0565b810181811067ffffffffffffffff8211171562000449576200044862000481565b5b80604052505050565b7f4e487b7100000000000000000000000000000000000000000000000000000000600052602260045260246000fd5b7f4e487b7100000000000000000000000000000000000000000000000000000000600052604160045260246000fd5b6000601f19601f8301169050919050565b620004cc81620003a6565b8114620004d857600080fd5b50565b61408980620004eb6000396000f3fe6080604052600436106101cd5760003560e01c80636c0360eb116100f7578063a22cb46511610095578063c87b56dd11610064578063c87b56dd14610643578063e985e9c514610680578063eb8d2444146106bd578063f2fde38b146106e8576101cd565b8063a22cb465146105af578063a38bffda146105d8578063b88d4fde14610603578063c617f4ed1461062c576101cd565b8063715018a6116100d1578063715018a6146105265780638da5cb5b1461053d578063926427441461056857806395d89b4114610584576101cd565b80636c0360eb146104935780636fdaddf1146104be57806370a08231146104e9576101cd565b80632f745c591161016f5780634f6ccce71161013e5780634f6ccce7146103b357806355f804b3146103f05780635d95bd36146104195780636352211e14610456576101cd565b80632f745c591461031f57806334918dfd1461035c5780633ccfd60b1461037357806342842e0e1461038a576101cd565b8063095ea7b3116101ab578063095ea7b31461027757806318160ddd146102a0578063189f92bd146102cb57806323b872dd146102f6576101cd565b806301ffc9a7146101d257806306fdde031461020f578063081812fc1461023a575b600080fd5b3480156101de57600080fd5b506101f960048036038101906101f49190612dc7565b610711565b60405161020691906132e0565b60405180910390f35b34801561021b57600080fd5b5061022461078b565b60405161023191906132fb565b60405180910390f35b34801561024657600080fd5b50610261600480360381019061025c9190612e5a565b61081d565b60405161026e9190613279565b60405180910390f35b34801561028357600080fd5b5061029e60048036038101906102999190612d8b565b6108a2565b005b3480156102ac57600080fd5b506102b56109ba565b6040516102c291906135dd565b60405180910390f35b3480156102d757600080fd5b506102e06109c7565b6040516102ed91906135dd565b60405180910390f35b34801561030257600080fd5b5061031d60048036038101906103189190612c85565b6109cc565b005b34801561032b57600080fd5b5061034660048036038101906103419190612d8b565b610a2c565b60405161035391906135dd565b60405180910390f35b34801561036857600080fd5b50610371610ad1565b005b34801561037f57600080fd5b50610388610b79565b005b34801561039657600080fd5b506103b160048036038101906103ac9190612c85565b610c3e565b005b3480156103bf57600080fd5b506103da60048036038101906103d59190612e5a565b610c5e565b6040516103e791906135dd565b60405180910390f35b3480156103fc57600080fd5b5061041760048036038101906104129190612e19565b610cf5565b005b34801561042557600080fd5b50610440600480360381019061043b9190612c20565b610d8b565b60405161044d91906135dd565b60405180910390f35b34801561046257600080fd5b5061047d60048036038101906104789190612e5a565b610da3565b60405161048a9190613279565b60405180910390f35b34801561049f57600080fd5b506104a8610e55565b6040516104b591906132fb565b60405180910390f35b3480156104ca57600080fd5b506104d3610ee3565b6040516104e091906135dd565b60405180910390f35b3480156104f557600080fd5b50610510600480360381019061050b9190612c20565b610ee9565b60405161051d91906135dd565b60405180910390f35b34801561053257600080fd5b5061053b610fa1565b005b34801561054957600080fd5b50610552611029565b60405161055f9190613279565b60405180910390f35b610582600480360381019061057d9190612e5a565b611053565b005b34801561059057600080fd5b506105996112ce565b6040516105a691906132fb565b60405180910390f35b3480156105bb57600080fd5b506105d660048036038101906105d19190612d4f565b611360565b005b3480156105e457600080fd5b506105ed611376565b6040516105fa91906135dd565b60405180910390f35b34801561060f57600080fd5b5061062a60048036038101906106259190612cd4565b611381565b005b34801561063857600080fd5b506106416113e3565b005b34801561064f57600080fd5b5061066a60048036038101906106659190612e5a565b6114a3565b60405161067791906132fb565b60405180910390f35b34801561068c57600080fd5b506106a760048036038101906106a29190612c49565b61154a565b6040516106b491906132e0565b60405180910390f35b3480156106c957600080fd5b506106d26115de565b6040516106df91906132e0565b60405180910390f35b3480156106f457600080fd5b5061070f600480360381019061070a9190612c20565b6115f1565b005b60007f780e9d63000000000000000000000000000000000000000000000000000000007bffffffffffffffffffffffffffffffffffffffffffffffffffffffff1916827bffffffffffffffffffffffffffffffffffffffffffffffffffffffff191614806107845750610783826116e9565b5b9050919050565b60606000805461079a9061388d565b80601f01602080910402602001604051908101604052809291908181526020018280546107c69061388d565b80156108135780601f106107e857610100808354040283529160200191610813565b820191906000526020600020905b8154815290600101906020018083116107f657829003601f168201915b5050505050905090565b6000610828826117cb565b610867576040517f08c379a000000000000000000000000000000000000000000000000000000000815260040161085e906134dd565b60405180910390fd5b6004600083815260200190815260200160002060009054906101000a900473ffffffffffffffffffffffffffffffffffffffff169050919050565b60006108ad82610da3565b90508073ffffffffffffffffffffffffffffffffffffffff168373ffffffffffffffffffffffffffffffffffffffff16141561091e576040517f08c379a00000000000000000000000000000000000000000000000000000000081526004016109159061357d565b60405180910390fd5b8073ffffffffffffffffffffffffffffffffffffffff1661093d611837565b73ffffffffffffffffffffffffffffffffffffffff16148061096c575061096b81610966611837565b61154a565b5b6109ab576040517f08c379a00000000000000000000000000000000000000000000000000000000081526004016109a29061347d565b60405180910390fd5b6109b5838361183f565b505050565b6000600880549050905090565b600381565b6109dd6109d7611837565b826118f8565b610a1c576040517f08c379a0000000000000000000000000000000000000000000000000000000008152600401610a139061359d565b60405180910390fd5b610a278383836119d6565b505050565b6000610a3783610ee9565b8210610a78576040517f08c379a0000000000000000000000000000000000000000000000000000000008152600401610a6f9061333d565b60405180910390fd5b600660008473ffffffffffffffffffffffffffffffffffffffff1673ffffffffffffffffffffffffffffffffffffffff168152602001908152602001600020600083815260200190815260200160002054905092915050565b610ad9611837565b73ffffffffffffffffffffffffffffffffffffffff16610af7611029565b73ffffffffffffffffffffffffffffffffffffffff1614610b4d576040517f08c379a0000000000000000000000000000000000000000000000000000000008152600401610b44906134fd565b60405180910390fd5b600e60009054906101000a900460ff1615600e60006101000a81548160ff021916908315150217905550565b610b81611837565b73ffffffffffffffffffffffffffffffffffffffff16610b9f611029565b73ffffffffffffffffffffffffffffffffffffffff1614610bf5576040517f08c379a0000000000000000000000000000000000000000000000000000000008152600401610bec906134fd565b60405180910390fd5b3373ffffffffffffffffffffffffffffffffffffffff166108fc479081150290604051600060405180830381858888f19350505050158015610c3b573d6000803e3d6000fd5b50565b610c5983838360405180602001604052806000815250611381565b505050565b6000610c686109ba565b8210610ca9576040517f08c379a0000000000000000000000000000000000000000000000000000000008152600401610ca0906135bd565b60405180910390fd5b60088281548110610ce3577f4e487b7100000000000000000000000000000000000000000000000000000000600052603260045260246000fd5b90600052602060002001549050919050565b610cfd611837565b73ffffffffffffffffffffffffffffffffffffffff16610d1b611029565b73ffffffffffffffffffffffffffffffffffffffff1614610d71576040517f08c379a0000000000000000000000000000000000000000000000000000000008152600401610d68906134fd565b60405180910390fd5b80600b9080519060200190610d87929190612a44565b5050565b600d6020528060005260406000206000915090505481565b6000806002600084815260200190815260200160002060009054906101000a900473ffffffffffffffffffffffffffffffffffffffff169050600073ffffffffffffffffffffffffffffffffffffffff168173ffffffffffffffffffffffffffffffffffffffff161415610e4c576040517f08c379a0000000000000000000000000000000000000000000000000000000008152600401610e439061349d565b60405180910390fd5b80915050919050565b600b8054610e629061388d565b80601f0160208091040260200160405190810160405280929190818152602001828054610e8e9061388d565b8015610edb5780601f10610eb057610100808354040283529160200191610edb565b820191906000526020600020905b815481529060010190602001808311610ebe57829003601f168201915b505050505081565b600c5481565b60008073ffffffffffffffffffffffffffffffffffffffff168273ffffffffffffffffffffffffffffffffffffffff161415610f5a576040517f08c379a0000000000000000000000000000000000000000000000000000000008152600401610f519061345d565b60405180910390fd5b600360008373ffffffffffffffffffffffffffffffffffffffff1673ffffffffffffffffffffffffffffffffffffffff168152602001908152602001600020549050919050565b610fa9611837565b73ffffffffffffffffffffffffffffffffffffffff16610fc7611029565b73ffffffffffffffffffffffffffffffffffffffff161461101d576040517f08c379a0000000000000000000000000000000000000000000000000000000008152600401611014906134fd565b60405180910390fd5b6110276000611c3d565b565b6000600a60009054906101000a900473ffffffffffffffffffffffffffffffffffffffff16905090565b600e60009054906101000a900460ff166110a2576040517f08c379a00000000000000000000000000000000000000000000000000000000081526004016110999061331d565b60405180910390fd5b60038111156110e6576040517f08c379a00000000000000000000000000000000000000000000000000000000081526004016110dd9061353d565b60405180910390fd5b600c54611103826110f56109ba565b611d0390919063ffffffff16565b1115611144576040517f08c379a000000000000000000000000000000000000000000000000000000000815260040161113b906133dd565b60405180910390fd5b3461115f8266b1a2bc2ec50000611d1990919063ffffffff16565b11156111a0576040517f08c379a00000000000000000000000000000000000000000000000000000000081526004016111979061355d565b60405180910390fd5b600381600d60003373ffffffffffffffffffffffffffffffffffffffff1673ffffffffffffffffffffffffffffffffffffffff168152602001908152602001600020546111ed91906136c2565b111561122e576040517f08c379a00000000000000000000000000000000000000000000000000000000081526004016112259061353d565b60405180910390fd5b60005b818110156112ca5760006112436109ba565b9050600c546112506109ba565b10156112b6576112603382611d2f565b600d60003373ffffffffffffffffffffffffffffffffffffffff1673ffffffffffffffffffffffffffffffffffffffff16815260200190815260200160002060008154809291906112b0906138f0565b91905055505b5080806112c2906138f0565b915050611231565b5050565b6060600180546112dd9061388d565b80601f01602080910402602001604051908101604052809291908181526020018280546113099061388d565b80156113565780601f1061132b57610100808354040283529160200191611356565b820191906000526020600020905b81548152906001019060200180831161133957829003601f168201915b5050505050905090565b61137261136b611837565b8383611d4d565b5050565b66b1a2bc2ec5000081565b61139261138c611837565b836118f8565b6113d1576040517f08c379a00000000000000000000000000000000000000000000000000000000081526004016113c89061359d565b60405180910390fd5b6113dd84848484611eba565b50505050565b6113eb611837565b73ffffffffffffffffffffffffffffffffffffffff16611409611029565b73ffffffffffffffffffffffffffffffffffffffff161461145f576040517f08c379a0000000000000000000000000000000000000000000000000000000008152600401611456906134fd565b60405180910390fd5b60006114696109ba565b905060005b600581101561149f5761148c33828461148791906136c2565b611d2f565b8080611497906138f0565b91505061146e565b5050565b60606114ae826117cb565b6114ed576040517f08c379a00000000000000000000000000000000000000000000000000000000081526004016114e49061351d565b60405180910390fd5b60006114f7611f16565b905060008151116115175760405180602001604052806000815250611542565b8061152184611fa8565b604051602001611532929190613255565b6040516020818303038152906040525b915050919050565b6000600560008473ffffffffffffffffffffffffffffffffffffffff1673ffffffffffffffffffffffffffffffffffffffff16815260200190815260200160002060008373ffffffffffffffffffffffffffffffffffffffff1673ffffffffffffffffffffffffffffffffffffffff16815260200190815260200160002060009054906101000a900460ff16905092915050565b600e60009054906101000a900460ff1681565b6115f9611837565b73ffffffffffffffffffffffffffffffffffffffff16611617611029565b73ffffffffffffffffffffffffffffffffffffffff161461166d576040517f08c379a0000000000000000000000000000000000000000000000000000000008152600401611664906134fd565b60405180910390fd5b600073ffffffffffffffffffffffffffffffffffffffff168173ffffffffffffffffffffffffffffffffffffffff1614156116dd576040517f08c379a00000000000000000000000000000000000000000000000000000000081526004016116d49061337d565b60405180910390fd5b6116e681611c3d565b50565b60007f80ac58cd000000000000000000000000000000000000000000000000000000007bffffffffffffffffffffffffffffffffffffffffffffffffffffffff1916827bffffffffffffffffffffffffffffffffffffffffffffffffffffffff191614806117b457507f5b5e139f000000000000000000000000000000000000000000000000000000007bffffffffffffffffffffffffffffffffffffffffffffffffffffffff1916827bffffffffffffffffffffffffffffffffffffffffffffffffffffffff1916145b806117c457506117c382612155565b5b9050919050565b60008073ffffffffffffffffffffffffffffffffffffffff166002600084815260200190815260200160002060009054906101000a900473ffffffffffffffffffffffffffffffffffffffff1673ffffffffffffffffffffffffffffffffffffffff1614159050919050565b600033905090565b816004600083815260200190815260200160002060006101000a81548173ffffffffffffffffffffffffffffffffffffffff021916908373ffffffffffffffffffffffffffffffffffffffff160217905550808273ffffffffffffffffffffffffffffffffffffffff166118b283610da3565b73ffffffffffffffffffffffffffffffffffffffff167f8c5be1e5ebec7d5bd14f71427d1e84f3dd0314c0f7b2291e5b200ac8c7c3b92560405160405180910390a45050565b6000611903826117cb565b611942576040517f08c379a00000000000000000000000000000000000000000000000000000000081526004016119399061343d565b60405180910390fd5b600061194d83610da3565b90508073ffffffffffffffffffffffffffffffffffffffff168473ffffffffffffffffffffffffffffffffffffffff16148061198f575061198e818561154a565b5b806119cd57508373ffffffffffffffffffffffffffffffffffffffff166119b58461081d565b73ffffffffffffffffffffffffffffffffffffffff16145b91505092915050565b8273ffffffffffffffffffffffffffffffffffffffff166119f682610da3565b73ffffffffffffffffffffffffffffffffffffffff1614611a4c576040517f08c379a0000000000000000000000000000000000000000000000000000000008152600401611a439061339d565b60405180910390fd5b600073ffffffffffffffffffffffffffffffffffffffff168273ffffffffffffffffffffffffffffffffffffffff161415611abc576040517f08c379a0000000000000000000000000000000000000000000000000000000008152600401611ab3906133fd565b60405180910390fd5b611ac78383836121bf565b611ad260008261183f565b6001600360008573ffffffffffffffffffffffffffffffffffffffff1673ffffffffffffffffffffffffffffffffffffffff1681526020019081526020016000206000828254611b2291906137a3565b925050819055506001600360008473ffffffffffffffffffffffffffffffffffffffff1673ffffffffffffffffffffffffffffffffffffffff1681526020019081526020016000206000828254611b7991906136c2565b92505081905550816002600083815260200190815260200160002060006101000a81548173ffffffffffffffffffffffffffffffffffffffff021916908373ffffffffffffffffffffffffffffffffffffffff160217905550808273ffffffffffffffffffffffffffffffffffffffff168473ffffffffffffffffffffffffffffffffffffffff167fddf252ad1be2c89b69c2b068fc378daa952ba7f163c4a11628f55a4df523b3ef60405160405180910390a4611c388383836122d3565b505050565b6000600a60009054906101000a900473ffffffffffffffffffffffffffffffffffffffff16905081600a60006101000a81548173ffffffffffffffffffffffffffffffffffffffff021916908373ffffffffffffffffffffffffffffffffffffffff1602179055508173ffffffffffffffffffffffffffffffffffffffff168173ffffffffffffffffffffffffffffffffffffffff167f8be0079c531659141344cd1fd0a4f28419497f9722a3daafe3b4186f6b6457e060405160405180910390a35050565b60008183611d1191906136c2565b905092915050565b60008183611d279190613749565b905092915050565b611d498282604051806020016040528060008152506122d8565b5050565b8173ffffffffffffffffffffffffffffffffffffffff168373ffffffffffffffffffffffffffffffffffffffff161415611dbc576040517f08c379a0000000000000000000000000000000000000000000000000000000008152600401611db39061341d565b60405180910390fd5b80600560008573ffffffffffffffffffffffffffffffffffffffff1673ffffffffffffffffffffffffffffffffffffffff16815260200190815260200160002060008473ffffffffffffffffffffffffffffffffffffffff1673ffffffffffffffffffffffffffffffffffffffff16815260200190815260200160002060006101000a81548160ff0219169083151502179055508173ffffffffffffffffffffffffffffffffffffffff168373ffffffffffffffffffffffffffffffffffffffff167f17307eab39ab6107e8899845ad3d59bd9653f200f220920489ca2b5937696c3183604051611ead91906132e0565b60405180910390a3505050565b611ec58484846119d6565b611ed184848484612333565b611f10576040517f08c379a0000000000000000000000000000000000000000000000000000000008152600401611f079061335d565b60405180910390fd5b50505050565b6060600b8054611f259061388d565b80601f0160208091040260200160405190810160405280929190818152602001828054611f519061388d565b8015611f9e5780601f10611f7357610100808354040283529160200191611f9e565b820191906000526020600020905b815481529060010190602001808311611f8157829003601f168201915b5050505050905090565b60606000821415611ff0576040518060400160405280600181526020017f30000000000000000000000000000000000000000000000000000000000000008152509050612150565b600082905060005b6000821461202257808061200b906138f0565b915050600a8261201b9190613718565b9150611ff8565b60008167ffffffffffffffff811115612064577f4e487b7100000000000000000000000000000000000000000000000000000000600052604160045260246000fd5b6040519080825280601f01601f1916602001820160405280156120965781602001600182028036833780820191505090505b5090505b60008514612149576001826120af91906137a3565b9150600a856120be9190613939565b60306120ca91906136c2565b60f81b818381518110612106577f4e487b7100000000000000000000000000000000000000000000000000000000600052603260045260246000fd5b60200101907effffffffffffffffffffffffffffffffffffffffffffffffffffffffffffff1916908160001a905350600a856121429190613718565b945061209a565b8093505050505b919050565b60007f01ffc9a7000000000000000000000000000000000000000000000000000000007bffffffffffffffffffffffffffffffffffffffffffffffffffffffff1916827bffffffffffffffffffffffffffffffffffffffffffffffffffffffff1916149050919050565b6121ca8383836124ca565b600073ffffffffffffffffffffffffffffffffffffffff168373ffffffffffffffffffffffffffffffffffffffff16141561220d57612208816124cf565b61224c565b8173ffffffffffffffffffffffffffffffffffffffff168373ffffffffffffffffffffffffffffffffffffffff161461224b5761224a8382612518565b5b5b600073ffffffffffffffffffffffffffffffffffffffff168273ffffffffffffffffffffffffffffffffffffffff16141561228f5761228a81612685565b6122ce565b8273ffffffffffffffffffffffffffffffffffffffff168273ffffffffffffffffffffffffffffffffffffffff16146122cd576122cc82826127c8565b5b5b505050565b505050565b6122e28383612847565b6122ef6000848484612333565b61232e576040517f08c379a00000000000000000000000000000000000000000000000000000000081526004016123259061335d565b60405180910390fd5b505050565b60006123548473ffffffffffffffffffffffffffffffffffffffff16612a21565b156124bd578373ffffffffffffffffffffffffffffffffffffffff1663150b7a0261237d611837565b8786866040518563ffffffff1660e01b815260040161239f9493929190613294565b602060405180830381600087803b1580156123b957600080fd5b505af19250505080156123ea57506040513d601f19601f820116820180604052508101906123e79190612df0565b60015b61246d573d806000811461241a576040519150601f19603f3d011682016040523d82523d6000602084013e61241f565b606091505b50600081511415612465576040517f08c379a000000000000000000000000000000000000000000000000000000000815260040161245c9061335d565b60405180910390fd5b805181602001fd5b63150b7a0260e01b7bffffffffffffffffffffffffffffffffffffffffffffffffffffffff1916817bffffffffffffffffffffffffffffffffffffffffffffffffffffffff1916149150506124c2565b600190505b949350505050565b505050565b6008805490506009600083815260200190815260200160002081905550600881908060018154018082558091505060019003906000526020600020016000909190919091505550565b6000600161252584610ee9565b61252f91906137a3565b9050600060076000848152602001908152602001600020549050818114612614576000600660008673ffffffffffffffffffffffffffffffffffffffff1673ffffffffffffffffffffffffffffffffffffffff168152602001908152602001600020600084815260200190815260200160002054905080600660008773ffffffffffffffffffffffffffffffffffffffff1673ffffffffffffffffffffffffffffffffffffffff168152602001908152602001600020600084815260200190815260200160002081905550816007600083815260200190815260200160002081905550505b6007600084815260200190815260200160002060009055600660008573ffffffffffffffffffffffffffffffffffffffff1673ffffffffffffffffffffffffffffffffffffffff16815260200190815260200160002060008381526020019081526020016000206000905550505050565b6000600160088054905061269991906137a3565b90506000600960008481526020019081526020016000205490506000600883815481106126ef577f4e487b7100000000000000000000000000000000000000000000000000000000600052603260045260246000fd5b906000526020600020015490508060088381548110612737577f4e487b7100000000000000000000000000000000000000000000000000000000600052603260045260246000fd5b9060005260206000200181905550816009600083815260200190815260200160002081905550600960008581526020019081526020016000206000905560088054806127ac577f4e487b7100000000000000000000000000000000000000000000000000000000600052603160045260246000fd5b6001900381819060005260206000200160009055905550505050565b60006127d383610ee9565b905081600660008573ffffffffffffffffffffffffffffffffffffffff1673ffffffffffffffffffffffffffffffffffffffff168152602001908152602001600020600083815260200190815260200160002081905550806007600084815260200190815260200160002081905550505050565b600073ffffffffffffffffffffffffffffffffffffffff168273ffffffffffffffffffffffffffffffffffffffff1614156128b7576040517f08c379a00000000000000000000000000000000000000000000000000000000081526004016128ae906134bd565b60405180910390fd5b6128c0816117cb565b15612900576040517f08c379a00000000000000000000000000000000000000000000000000000000081526004016128f7906133bd565b60405180910390fd5b61290c600083836121bf565b6001600360008473ffffffffffffffffffffffffffffffffffffffff1673ffffffffffffffffffffffffffffffffffffffff168152602001908152602001600020600082825461295c91906136c2565b92505081905550816002600083815260200190815260200160002060006101000a81548173ffffffffffffffffffffffffffffffffffffffff021916908373ffffffffffffffffffffffffffffffffffffffff160217905550808273ffffffffffffffffffffffffffffffffffffffff16600073ffffffffffffffffffffffffffffffffffffffff167fddf252ad1be2c89b69c2b068fc378daa952ba7f163c4a11628f55a4df523b3ef60405160405180910390a4612a1d600083836122d3565b5050565b6000808273ffffffffffffffffffffffffffffffffffffffff163b119050919050565b828054612a509061388d565b90600052602060002090601f016020900481019282612a725760008555612ab9565b82601f10612a8b57805160ff1916838001178555612ab9565b82800160010185558215612ab9579182015b82811115612ab8578251825591602001919060010190612a9d565b5b509050612ac69190612aca565b5090565b5b80821115612ae3576000816000905550600101612acb565b5090565b6000612afa612af58461361d565b6135f8565b905082815260208101848484011115612b1257600080fd5b612b1d84828561384b565b509392505050565b6000612b38612b338461364e565b6135f8565b905082815260208101848484011115612b5057600080fd5b612b5b84828561384b565b509392505050565b600081359050612b7281613ff7565b92915050565b600081359050612b878161400e565b92915050565b600081359050612b9c81614025565b92915050565b600081519050612bb181614025565b92915050565b600082601f830112612bc857600080fd5b8135612bd8848260208601612ae7565b91505092915050565b600082601f830112612bf257600080fd5b8135612c02848260208601612b25565b91505092915050565b600081359050612c1a8161403c565b92915050565b600060208284031215612c3257600080fd5b6000612c4084828501612b63565b91505092915050565b60008060408385031215612c5c57600080fd5b6000612c6a85828601612b63565b9250506020612c7b85828601612b63565b9150509250929050565b600080600060608486031215612c9a57600080fd5b6000612ca886828701612b63565b9350506020612cb986828701612b63565b9250506040612cca86828701612c0b565b9150509250925092565b60008060008060808587031215612cea57600080fd5b6000612cf887828801612b63565b9450506020612d0987828801612b63565b9350506040612d1a87828801612c0b565b925050606085013567ffffffffffffffff811115612d3757600080fd5b612d4387828801612bb7565b91505092959194509250565b60008060408385031215612d6257600080fd5b6000612d7085828601612b63565b9250506020612d8185828601612b78565b9150509250929050565b60008060408385031215612d9e57600080fd5b6000612dac85828601612b63565b9250506020612dbd85828601612c0b565b9150509250929050565b600060208284031215612dd957600080fd5b6000612de784828501612b8d565b91505092915050565b600060208284031215612e0257600080fd5b6000612e1084828501612ba2565b91505092915050565b600060208284031215612e2b57600080fd5b600082013567ffffffffffffffff811115612e4557600080fd5b612e5184828501612be1565b91505092915050565b600060208284031215612e6c57600080fd5b6000612e7a84828501612c0b565b91505092915050565b612e8c816137d7565b82525050565b612e9b816137e9565b82525050565b6000612eac8261367f565b612eb68185613695565b9350612ec681856020860161385a565b612ecf81613a26565b840191505092915050565b6000612ee58261368a565b612eef81856136a6565b9350612eff81856020860161385a565b612f0881613a26565b840191505092915050565b6000612f1e8261368a565b612f2881856136b7565b9350612f3881856020860161385a565b80840191505092915050565b6000612f51601f836136a6565b9150612f5c82613a37565b602082019050919050565b6000612f74602b836136a6565b9150612f7f82613a60565b604082019050919050565b6000612f976032836136a6565b9150612fa282613aaf565b604082019050919050565b6000612fba6026836136a6565b9150612fc582613afe565b604082019050919050565b6000612fdd6025836136a6565b9150612fe882613b4d565b604082019050919050565b6000613000601c836136a6565b915061300b82613b9c565b602082019050919050565b6000613023602b836136a6565b915061302e82613bc5565b604082019050919050565b60006130466024836136a6565b915061305182613c14565b604082019050919050565b60006130696019836136a6565b915061307482613c63565b602082019050919050565b600061308c602c836136a6565b915061309782613c8c565b604082019050919050565b60006130af6029836136a6565b91506130ba82613cdb565b604082019050919050565b60006130d26038836136a6565b91506130dd82613d2a565b604082019050919050565b60006130f56029836136a6565b915061310082613d79565b604082019050919050565b60006131186020836136a6565b915061312382613dc8565b602082019050919050565b600061313b602c836136a6565b915061314682613df1565b604082019050919050565b600061315e6020836136a6565b915061316982613e40565b602082019050919050565b6000613181602f836136a6565b915061318c82613e69565b604082019050919050565b60006131a4601c836136a6565b91506131af82613eb8565b602082019050919050565b60006131c76013836136a6565b91506131d282613ee1565b602082019050919050565b60006131ea6021836136a6565b91506131f582613f0a565b604082019050919050565b600061320d6031836136a6565b915061321882613f59565b604082019050919050565b6000613230602c836136a6565b915061323b82613fa8565b604082019050919050565b61324f81613841565b82525050565b60006132618285612f13565b915061326d8284612f13565b91508190509392505050565b600060208201905061328e6000830184612e83565b92915050565b60006080820190506132a96000830187612e83565b6132b66020830186612e83565b6132c36040830185613246565b81810360608301526132d58184612ea1565b905095945050505050565b60006020820190506132f56000830184612e92565b92915050565b600060208201905081810360008301526133158184612eda565b905092915050565b6000602082019050818103600083015261333681612f44565b9050919050565b6000602082019050818103600083015261335681612f67565b9050919050565b6000602082019050818103600083015261337681612f8a565b9050919050565b6000602082019050818103600083015261339681612fad565b9050919050565b600060208201905081810360008301526133b681612fd0565b9050919050565b600060208201905081810360008301526133d681612ff3565b9050919050565b600060208201905081810360008301526133f681613016565b9050919050565b6000602082019050818103600083015261341681613039565b9050919050565b600060208201905081810360008301526134368161305c565b9050919050565b600060208201905081810360008301526134568161307f565b9050919050565b60006020820190508181036000830152613476816130a2565b9050919050565b60006020820190508181036000830152613496816130c5565b9050919050565b600060208201905081810360008301526134b6816130e8565b9050919050565b600060208201905081810360008301526134d68161310b565b9050919050565b600060208201905081810360008301526134f68161312e565b9050919050565b6000602082019050818103600083015261351681613151565b9050919050565b6000602082019050818103600083015261353681613174565b9050919050565b6000602082019050818103600083015261355681613197565b9050919050565b60006020820190508181036000830152613576816131ba565b9050919050565b60006020820190508181036000830152613596816131dd565b9050919050565b600060208201905081810360008301526135b681613200565b9050919050565b600060208201905081810360008301526135d681613223565b9050919050565b60006020820190506135f26000830184613246565b92915050565b6000613602613613565b905061360e82826138bf565b919050565b6000604051905090565b600067ffffffffffffffff821115613638576136376139f7565b5b61364182613a26565b9050602081019050919050565b600067ffffffffffffffff821115613669576136686139f7565b5b61367282613a26565b9050602081019050919050565b600081519050919050565b600081519050919050565b600082825260208201905092915050565b600082825260208201905092915050565b600081905092915050565b60006136cd82613841565b91506136d883613841565b9250827fffffffffffffffffffffffffffffffffffffffffffffffffffffffffffffffff0382111561370d5761370c61396a565b5b828201905092915050565b600061372382613841565b915061372e83613841565b92508261373e5761373d613999565b5b828204905092915050565b600061375482613841565b915061375f83613841565b9250817fffffffffffffffffffffffffffffffffffffffffffffffffffffffffffffffff04831182151516156137985761379761396a565b5b828202905092915050565b60006137ae82613841565b91506137b983613841565b9250828210156137cc576137cb61396a565b5b828203905092915050565b60006137e282613821565b9050919050565b60008115159050919050565b60007fffffffff0000000000000000000000000000000000000000000000000000000082169050919050565b600073ffffffffffffffffffffffffffffffffffffffff82169050919050565b6000819050919050565b82818337600083830152505050565b60005b8381101561387857808201518184015260208101905061385d565b83811115613887576000848401525b50505050565b600060028204905060018216806138a557607f821691505b602082108114156138b9576138b86139c8565b5b50919050565b6138c882613a26565b810181811067ffffffffffffffff821117156138e7576138e66139f7565b5b80604052505050565b60006138fb82613841565b91507fffffffffffffffffffffffffffffffffffffffffffffffffffffffffffffffff82141561392e5761392d61396a565b5b600182019050919050565b600061394482613841565b915061394f83613841565b92508261395f5761395e613999565b5b828206905092915050565b7f4e487b7100000000000000000000000000000000000000000000000000000000600052601160045260246000fd5b7f4e487b7100000000000000000000000000000000000000000000000000000000600052601260045260246000fd5b7f4e487b7100000000000000000000000000000000000000000000000000000000600052602260045260246000fd5b7f4e487b7100000000000000000000000000000000000000000000000000000000600052604160045260246000fd5b6000601f19601f8301169050919050565b7f53616c65206d7573742062652061637469766520746f206d696e74204e465400600082015250565b7f455243373231456e756d657261626c653a206f776e657220696e646578206f7560008201527f74206f6620626f756e6473000000000000000000000000000000000000000000602082015250565b7f4552433732313a207472616e7366657220746f206e6f6e20455243373231526560008201527f63656976657220696d706c656d656e7465720000000000000000000000000000602082015250565b7f4f776e61626c653a206e6577206f776e657220697320746865207a65726f206160008201527f6464726573730000000000000000000000000000000000000000000000000000602082015250565b7f4552433732313a207472616e736665722066726f6d20696e636f72726563742060008201527f6f776e6572000000000000000000000000000000000000000000000000000000602082015250565b7f4552433732313a20746f6b656e20616c7265616479206d696e74656400000000600082015250565b7f596f757220507572636861736520776f756c6420657863656564206d6178207460008201527f6f74616c20737570706c79000000000000000000000000000000000000000000602082015250565b7f4552433732313a207472616e7366657220746f20746865207a65726f2061646460008201527f7265737300000000000000000000000000000000000000000000000000000000602082015250565b7f4552433732313a20617070726f766520746f2063616c6c657200000000000000600082015250565b7f4552433732313a206f70657261746f7220717565727920666f72206e6f6e657860008201527f697374656e7420746f6b656e0000000000000000000000000000000000000000602082015250565b7f4552433732313a2061646472657373207a65726f206973206e6f74206120766160008201527f6c6964206f776e65720000000000000000000000000000000000000000000000602082015250565b7f4552433732313a20617070726f76652063616c6c6572206973206e6f74206f7760008201527f6e6572206e6f7220617070726f76656420666f7220616c6c0000000000000000602082015250565b7f4552433732313a206f776e657220717565727920666f72206e6f6e657869737460008201527f656e7420746f6b656e0000000000000000000000000000000000000000000000602082015250565b7f4552433732313a206d696e7420746f20746865207a65726f2061646472657373600082015250565b7f4552433732313a20617070726f76656420717565727920666f72206e6f6e657860008201527f697374656e7420746f6b656e0000000000000000000000000000000000000000602082015250565b7f4f776e61626c653a2063616c6c6572206973206e6f7420746865206f776e6572600082015250565b7f4552433732314d657461646174613a2055524920717565727920666f72206e6f60008201527f6e6578697374656e7420746f6b656e0000000000000000000000000000000000602082015250565b7f4d6178696d756d206f662033204e4654732070657220706572736f6e00000000600082015250565b7f4e6f7420656e6f756768204554482073656e7400000000000000000000000000600082015250565b7f4552433732313a20617070726f76616c20746f2063757272656e74206f776e6560008201527f7200000000000000000000000000000000000000000000000000000000000000602082015250565b7f4552433732313a207472616e736665722063616c6c6572206973206e6f74206f60008201527f776e6572206e6f7220617070726f766564000000000000000000000000000000602082015250565b7f455243373231456e756d657261626c653a20676c6f62616c20696e646578206f60008201527f7574206f6620626f756e64730000000000000000000000000000000000000000602082015250565b614000816137d7565b811461400b57600080fd5b50565b614017816137e9565b811461402257600080fd5b50565b61402e816137f5565b811461403957600080fd5b50565b61404581613841565b811461405057600080fd5b5056fea2646970667358221220058c7c1ecd9b538436c80c512bd34c33e4bc77a6cf05dec07bb5512d09b248d364736f6c63430008040033",
  "linkReferences": {},
  "deployedLinkReferences": {}
}